8=FIX.4.2|9=12|35=D|49=CLIENT|56=SERVER|34=3|10=185|